:020000040800F2
:1000000008C00020DD020008F7B400087F85000862
:10001000F5B40008792E0008F5FF00080000000084
:100020000000000000000000000000004502000881
:100030001D350008000000008902000801C1000809
:10004000F7020008F7020008F7020008F7020008AC
:10005000F7020008F7020008F7020008F70200089C
:10006000F7020008F7020008F7020008F70200088C
:100070007531000895310008F7020008F702000802
:10008000C1310008F1310008F7020008F70200084A
:10009000F7020008F7020008F7020008F70200085C
:1000A000F7020008F7020008F7020008F70200084C
:1000B000F702000879EF0008F7020008F7020008CD
:1000C000F7020008F7020008F7020008F70200082C
:1000D000F702000819FC00087DFC00088DFD0008EF
:1000E000F7020008F7020008F7020008F70200080C
:1000F000F7020008F7020008F7020008F7020008FC
:10010000F7020008F7020008F7020008F7020008EB
:10011000F7020008F7020008F7020008F7020008DB
:10012000F7020008F7020008F7020008F7020008CB
:1001300000F002F800F076F80AA090E8000C824483
:100140008344AAF10107DA4501D100F06BF8AFF260
:10015000090EBAE80F0013F0010F18BFFB1A43F0A5
:1001600001031847C4CA0300E4CA03000A444FF05D
:10017000000C10F8013B13F0070408BF10F8014B06
:100180001D1108BF10F8015B641E05D010F8016B4B
:10019000641E01F8016BF9D113F0080F1EBF10F8AF
:1001A000014BAD1C0C1B09D16D1E58BF01F801CBD2
:1001B000FAD505E014F8016B01F8016B6D1EF9D555
:1001C0009142D6D37047000000230024002500266A
:1001D000103A28BF78C1FBD8520728BF30C148BFAA
:1001E0000B607047672920F03081642900F0168188
:1001F000782900F04F81732900F0C18600207047F4
:100200001FB501F00BFA0400002000211FF00CF9CB
:10021000401C6060002000211FF01CF9E0601FBD41
:1002200010B510BD01F0C0FC1146FFF7E9FF1BF04F
:10023000ADFF01F005FF03B4FFF7F2FF03BC1BF0B5
:1002400074FB0000224B19680868B0E8F00F80F3D7
:100250000988BFF36F8F4FF0000080F311884EF0D4
:100260000D0E70470000000006480068006880F32B
:10027000088862B661B6BFF34F8FBFF36F8F00DFA0
:1002800000BF00BF08ED00E0EFF30980BFF36F8F00
:100290000F4B1A6820E9F00F106008B54FF05000BE
:1002A00080F31188BFF34F8FBFF36F8F1EF000FAFA
:1002B0004FF0000080F31188BDE808401968086815
:1002C000B0E8F00F80F30988BFF36F8F704700BF6D
:1002D000E4000020EFF305807047000009488047E4
:1002E00009480047FEE7FEE7FEE7FEE7FEE7FEE718
:1002F000FEE7FEE7FEE7FEE704480549054A064B30
:100300007047000015C100083101000808BA00203C
:1003100008C0002008BC002008BC0020704710B5B1
:10032000044600F083FB0068005DC00602D504F1BE
:10033000200010BD204610BD0FB4044910B503AA1B
:10034000029800F021FE10BC5DF814FBB000002004
:100350000FB41CB5084B06AA7B446946009005986B
:1003600000F0E3FD04460020694600F0F1FD204660
:100370001CBC5DF814FB0000F50B000070B50446D2
:1003800085690068C10601D5302600E02026C00737
:1003900007D070BDD4E9012130469047206A401C47
:1003A00020626D1EF6D570BD70B504468569007873
:1003B000C00707D170BDD4E9012120209047206AF1
:1003C000401C20626D1EF6D570BD70B50C4605460A
:1003D000012A05D02878800600D5EA69002302E0CA
:1003E000012305E05B1C934202D2E05C0028F9D1B6
:1003F000A869E618C01AA861286A18442862284625
:10040000FFF7BCFF04E0D5E9012114F8010B904788
:10041000B442F8D32846FFF7C7FF70BD2DE9F0417D
:100420000646002410687529314616A510D0AFF392
:100430000080002802DA404213A507E031688A07ED
:1004400001D512A502E0490704D511A5012401E058
:10045000AFF3008000210A2206F1240709E0B0FB77
:10046000F2FCB0FBF2F302FB1C003030785418466B
:10047000491C0028F3D123462A463046BDE8F04106
:1004800000F0E7BA000000002D0000002B00000083
:100490002000000070B504460D4621461068AFF3F9
:1004A00000802188090502D50F4A7A4402E00E4AED
:1004B0007A440E32002104F1240305E000F00F0617
:1004C0000009965D5E54491C0028F7D1207800236E
:1004D000000704D5702D02D009B102231132204645
:1004E000BDE8704000F0B5BA16C603002DE9F05F14
:1004F000894604464FF0000ADFF824B1FB44C0F8F7
:1005000020A02046E168884700287DD0252806D015
:10051000D4E901219047206A401C2062F1E70025C0
:100520005F462046E16888472028064607DB312ED3
:1005300005D2B81910F8200C08B10543F1E7A80757
:1005400001D525F00405C4F81CA00027C4F818A0A4
:100550002A2E09D030461BF0E1F938B304EB8708A6
:10056000303EC8F8186019E059F8041B204604EB27
:1005700087029161E1688847012F064618D1E0693A
:10058000002820DA25F020051DE0D8F8180000EB3F
:10059000800006EB40003038C8F818002046E168BB
:1005A000884706461BF0BAF90028EED1012F0AD081
:1005B0002E2E08D12046E16888477F1C0646022F70
:1005C00045F02005C4DBA069002803DA404245F06D
:1005D0000105A061E80701D025F01005A6B1A6F13C
:1005E0004100192802D8203645F400654A463146B4
:1005F000204625604D46FFF7F5FD60B1012807D084
:10060000ED1D25F0070000E007E000F1080978E79C
:1006100005F1040975E730467AE7206ABDE8F09FE6
:10062000ECC503000FB400B58DB010A9099000917E
:100630000B904FF0FF300A9000200C900648784451
:100640000690064878446A4607900F9909A800F07A
:1006500005FF0DB05DF814FB3B0E0000530E0000CB
:1006600040EA010310B59B070FD1042A0DD310C82F
:1006700008C9121F9C42F8D020BA19BA884201D981
:10068000012010BD4FF0FF3010BD1AB1D30703D0C9
:10069000521C07E0002010BD10F8013B11F8014B7F
:1006A0001B1B07D110F8013B11F8014B1B1B01D19B
:1006B000921EF1D1184610BD40EA0103024630B542
:1006C0009B0710D14FF0013400E008C208C91D1B80
:1006D0009D4315EAC41FF8D013F0FF0102F8011B77
:1006E0000DD01B0AF8E711F8013B002B02F8013B83
:1006F00005D011F8013B002B02F8013BF3D130BDCE
:1007000010B5431C02E010F8011B71B18107FAD14A
:100710004FF0013202C88C1A8C4314EAC211F9D08E
:10072000C01A0A0603D0C01E10BDC01A10BD0A04AC
:1007300001D0801E10BD0902FCD0401E10BD40EA51
:10074000010370B59B072ED14FF00136042A2AD33E
:1007500008C810C99D1B9D43121F15EAC61517D066
:10076000D8B2E1B2401A50EA056110D198B2A1B2F4
:10077000401A50EA05410AD123F07F4024F07F411E
:10078000401A50EA052102D1180EA0EB146070BD8A
:10079000A342DBD018BA21BA884201D9012070BD2A
:1007A0004FF0FF3070BD0AB9002070BD10F8013B5A
:1007B00011F8014B63B1A3420AD1521E08D010F8C0
:1007C000013B11F8014B1BB1A34201D1521EEDD1E7
:1007D000181B70BD032A40F2308010F0030C00F0AB
:1007E000158011F8013BBCF1020F624498BF11F86B
:1007F00001CB00F8013B38BF11F8013BA2F1040224
:1008000098BF00F801CB38BF00F8013B11F003039B
:1008100000F06780083AC0F0088051F8043B083ABD
:1008200051F804CBA0E80810F5E7121D5CBF51F8A1
:10083000043B40F8043BAFF30080D20724BF11F81B
:10084000013B11F801CB48BF11F8012B24BF00F880
:10085000013B00F801CB48BF00F8012B7047431A59
:1008600028BF9A427FF6B6AF032A1044114440F2E3
:10087000268010F0030F1EBF11F8013D521E00F834
:10088000013D10F0030F7FF4F6AF11F0030300F009
:100890007886083AC0F00B8051F8043D083A51F8C8
:1008A00004CD40F8043D40F804CDFFF7F3BF121D1E
:1008B0005CBF51F8043D40F8043DAFF30080D2071F
:1008C00024BF11F8013D11F801CD48BF11F8012CEA
:1008D00024BF00F8013D00F801CD48BF00F8012C0D
:1008E000704710B5203AC0F00B80B1E81850203A9C
:1008F000A0E81850B1E81850A0E81850BFF4F5AFC0
:100900005FEA027C24BFB1E81850A0E8185044BF49
:1009100018C918C0BDE810405FEA827C24BF51F8B6
:10092000043B40F8043B08BF7047D20728BF31F8AA
:10093000023B48BF11F8012B28BF20F8023B48BFFB
:1009400000F8012B704702F0FF0343EA032242EA5A
:10095000024200F042BE4FF0000200B5134694463A
:100960009646203922BFA0E80C50A0E80C50B1F107
:100970002001BFF4F7AF090728BFA0E80C5048BF1B
:100980000CC05DF804EB890028BF40F8042B08BFB9
:10099000704748BF20F8022B11F0804F18BF00F8B5
:1009A000012B70474FF0013C50F8042B51F8043BE9
:1009B0009A4221D1A2EB0C03934313EACC1317D133
:1009C00050F8042B51F8043B9A4215D1A2EB0C03CA
:1009D000934313EACC130BD150F8042B51F8043B8A
:1009E0009A4209D1A2EB0C03934313EACC13DBD058
:1009F0004FF00000704700BFD01A01BAB1FA81F180
:100A000001F0180122FA01F0CB40C1F12001DBB264
:100A1000C0B2C01A2CFA01F3D11A914311EAC311E2
:100A2000E6D17047704770477047704710B500F0C7
:100A3000F5FD001D10BD00BFF1E9010010B500F08B
:100A4000F1FD006810BD10B5044600F0EBFD046038
:100A500010BD2DE9F0470D4699469246044600F137
:100A600024080168880604D5E06921F0100121609E
:100A700000E00120A84201DD471B00E00027A1693A
:100A80007A1902EB0900081AA0612078C00602D486
:100A90002046FFF773FC002608E0D4E901211AF88C
:100AA00006009047206A401C761C20624E45F4DB0D
:100AB0002078C0060AD52046FFF760FC06E0D4E99E
:100AC000012130209047206A401C2062381EA7F187
:100AD0000107F4DC07E0D4E9012118F8050090478C
:100AE000206A401C2062281EA5F10105F3DC204687
:100AF000FFF75AFC2078000602D50220BDE8F087F7
:100B00000120FBE770472DE9FF4F0C461E464FF0D2
:100B1000FF378BB0D2E90001DDF860800A908A4689
:100B2000C1F30A5505B93D46002108464FF00000C3
:100B3000BAF1000F00F4400005DA00EB80004FF43A
:100B4000400101EA50004FEA9059B9F1010F00DD70
:100B5000B9460A9850EA4A000ED044F61050A5F261
:100B6000FF3545432F14B8F1000F1ED07542291EE2
:100B70001EDDC9F100021CE0B8F1010F4FF00000CA
:100B800001D0302103E0F24305E02154401CB04283
:100B9000FBDB30460022002121540B99C1F808806C
:100BA000C1E900200FB0BDE8F08FBD1B6D1CDEE772
:100BB0004A4600DA694206A800F080FF06AB93E8D7
:100BC000070003AB83E8070050460A9901F05FFA7B
:100BD0008DE80700A0F500501F3800900398002D05
:100BE00009DD42F21F014A46084403A90390684602
:100BF00001F0E9FC08E0A0F500504A461F3803A9BF
:100C00000390684601F007FD8DE807000004000C22
:100C100003D04FF0FF30410800E01046B8F1000F5C
:100C200003D00022009215461EE0751E05D400F088
:100C3000FDFC303262556D1EF9D5B34601220843E2
:100C400002D000227F1C04E02078302801D100224D
:100C50007F1E002A099786D01DE0112D07DA00F0CB
:100C6000E5FC303262556D1C50EA0102F5D10843B3
:100C700002D00098C8B10EE00021681E05E0235C98
:100C8000625C63542254401E491C8142F7DBAB4630
:100C9000A81B401E0990002004F80B000B98099A2D
:100CA000C0F80880C0E9002B7CE711264FF000084F
:100CB00059E72DE9F04F88460446D21D22F007017E
:100CC00091B0D1E90001CDE90A011AF011FC024608
:100CD0000B98C00F01D02D2007E02068810701D5B7
:100CE0002B2002E0202101EAC000032A099001D054
:100CF000072A05DB03464146204600F0E5FC0BE1F0
:100D00002078800601D5E06900E00620B8F1650F83
:100D1000814606D0B8F1660F18D0B8F1670F70D1D0
:100D200031E00020B9F1110F009001DB112301E047
:100D300009F101030AAA01A90CA8FFF7E4FEDDE905
:100D40000C70002609F10105834647E001204B465F
:100D500000904FF000470AAA01A90CA8FFF7D3FEA4
:100D6000DDE90DB00C995D46002610B909F10100CE
:100D70000D18B9EB050003D4C0F1FF3609F10105E8
:100D8000A5EB09002BE0B9F1010F01DA4FF00109E1
:100D90000020B9F1110F0090484601DD112300E059
:100DA00003460AAA01A90CA8FFF7ADFEDDE90C7005
:100DB0004D4600268346207800070AD4AB4500DA6A
:100DC0005D4601A8012D04DD411911F8011C3029EF
:100DD00007D04F4502DA17F1040F04DA01208246EA
:100DE0000FE06D1EEEE7002F02DCED1B3E4403E03A
:100DF000781CA84200DD7D1CB81B00F1010A4FF0F1
:100E000000472078000703D4AA4501DB4FF0FF3AE2
:100E10000021B7F1004F0DF143088DF8431024D0A5
:100E200002202B23002F01DA7F422D230A21021EEC
:100E3000A0F1010000DC5FB197FBF1FC97FBF1F240
:100E400001FB1C7C17460CF1300C08F801CDEEE7D5
:100E5000A8F1010003702188090501D5452100E0B2
:100E60006521A0F1010800F8011C09980FA9A1EB68
:100E70000807FF1D00B10120411901EBEA70A169CB
:100E80003844081A401EA0612078C00602D42046CB
:100E9000FFF774FA099828B1D4E901219047206A34
:100EA000401C20622078C00622D52046FFF766FA53
:100EB0001EE0002E04DBB34502DD01A8805D00E0EA
:100EC0003020D4E901219047206A401C2062761C22
:100ED000AAF101005FEA000A0AD100F09FFBC06896
:100EE0000168405CD4E901219047206A401C2062DF
:100EF000281EA5F10105DCDC07E0D4E9012118F882
:100F0000010B9047206A401C2062381EA7F10107A0
:100F1000F3DC2046FFF748FA032011B043E6000057
:100F200001694A1C02610878704700B58FB0CDE9AD
:100F300001310021059105497944CDE9031011469D
:100F40006846FFF7D3FA0FB000BD0000E5FFFFFFD2
:100F50000A6802F8010B0A60704710B5436913B1C3
:100F6000AFF3008001E0FFF730FA012010BD1278E6
:100F700000F124010A7000224A700122EDE7116895
:100F80004FF0FF32E9E70000074B70B50D467B4498
:100F9000FFF7CBFF0446284600F0FEFD10B14FF0EE
:100FA000FF3070BD204670BDCBAF01002DE9FF4F73
:100FB000064689B00878FF2806D0491C2D2805D0A0
:100FC00000244FF0000908E000200CE00124F8E7BD
:100FD00009EB8903491C00EB43090878FF28F7D186
:100FE00014B1C9F100008146107800252C46AA46AC
:100FF00029462D2801D02B2804D1521C2D2813D08E
:10100000002082468B461078FF280FD04FF0000C4E
:101010000A21521CA5FB017804FB018105FB0C1180
:10102000C5194BEB0104EEE70120EAE70021084671
:101030004FF00000BAF1000F02D000EB8000400832
:10104000C0F38158B8F1010F01DD4FF0FF380C9863
:1010500009EB000755EA040009D04FF0020917F523
:10106000FA7F0BDA4FEACA70C6E900B012E04FEA25
:10107000CA70C6E900B00DB0BDE8F08FB7F5FA7FD1
:101080000DDDF0487844D0E90010C6E9001040EAD0
:10109000CA70706000F0C6FAC0F80090EBE7391E25
:1010A00002DAC8F1000200E0424600DA794206A8FE
:1010B00000F004FD06AB93E8070003AB83E80700EC
:1010C00044F23E005BEA04010090584604D144F229
:1010D0001E012C465D460091210C0904014306D1F6
:1010E0000099240444EA15442D041039009104F0B9
:1010F0007F41014306D10099240244EA15642D0280
:101100000839009104F07041014306D1009924018F
:1011100044EA15742D01091F009104F04041014378
:1011200006D10099A40044EA9574AD00891E00918F
:1011300004F00041084304D100986D196441401E39
:10114000009042466846002FCDE9014503A902DD23
:1011500001F075FA01E001F04AFABAF1000F044615
:101160000D4601D084F0004440F2FF7724F00040A7
:10117000284303D0C4F30A50B84212D100F052FA07
:10118000C0F80090C4F30A50B8420AD1AE4878447F
:10119000D0E90010C6E9001004F000410843706077
:1011A00069E7C6E9005466E72DE9FF4F1F464FF097
:1011B000000A4FF0FF38454691B0D7E90146CDF817
:1011C0003CA000F02BFAC0680168405C1090B9693F
:1011D00012986D1C8847396A814688470028F6D1E5
:1011E000B9F1FF3F0AD0002E24F4D06411DDB9F12B
:1011F0002B0F08D0B9F12D0F0BD102E0404615B0EE
:101200003AE744F48064B96912986D1C8847761EE9
:101210008146600504A901D52D2000E02B20002E79
:1012200001F1010B0DF130088DF810003FDDB9F12F
:10123000690F08D0B9F1490F05D0B9F16E0F02D08E
:10124000B9F14E0F1CD13B4601A8009580E8500231
:10125000DDE912126FF002001FF083F9C11CCED13C
:101260000EE0B96912986D1C884781461398761E66
:1012700044F4007405600F98401C002E0F9016DD9A
:10128000B9F1300FEDD0B9F1780F02D0B9F1580FA4
:101290000DD10F9801280AD13B46CDE90054DDE974
:1012A0001212001F02961FF05AF9C11CA7D1109903
:1012B00089453ED144F0800406E01399681CAAF1E8
:1012C000010A44F400740860B9696D1C1298761E16
:1012D000884730288146F0D02BE01099894505D108
:1012E000200603D4761E44F0800418E048461AF025
:1012F00015FB08B3761E0DF123018B4544F40074F1
:1013000008D2A9F130000BF8010B200607D5AAF18D
:10131000010003E0200602D40AF101008246A00584
:1013200002D51399681C0860B96912986D1C88472A
:101330008146002ED1DC53E0002E51DDB9F1650F5E
:1013400002D0B9F1450F4BD1A00549D5B9696D1C43
:101350001298761E24F440748847002E81460CDDD6
:101360002B2804D0B9F12D0F07D144F48074B9694A
:1013700012986D1C8847761E8146E00501D52D2107
:1013800000E02B2108F8011BCDF8008021E0761E3B
:101390000DF13901884544F400740CD2A9F13000F4
:1013A00010F0FF0088F8000002D10099884509D9A3
:1013B00008F1010806E0E00501D5244801E042F209
:1013C0000F708246B96912986D1C88478146139840
:1013D0000560002E04DD48461AF0A0FA0028D6D198
:1013E000F96912988847FF2053468BF8000088F867
:1013F000000000200A900B9004AA0CA90AA8FFF78D
:10140000D5FDA00502D46FF00100F8E614F0240F1A
:101410000AD0E00714D13868DDE90A12031D3B60E9
:101420000068C0E900120BE00AA968461AF084F8C7
:10143000E00705D13868009A011D39600068026034
:101440002846DCE6C0BB0300B6BA0300F1D8FFFFB4
:10145000026811441378016018467047D16005494D
:1014600079445161044979441162002111611146A6
:1014700000F06AB9EDFFFFFF4D020000426842B183
:10148000016811F8013B23B1521EC0E90012184651
:1014900070470121C160881E704742685AB1C36815
:1014A000016843B983688B4205D0491E521CC0E9CC
:1014B0000012002070474FF0FF3070470FB4002338
:1014C00000B589B00CA900910B99CB60204B7B44EF
:1014D0000693204B7B44079304236FF00042CDE931
:1014E00001321D4A7A446B460892024600201FF0E2
:1014F00034F809B05DF814FB70B506464FF0FF30C4
:1015000015460C46324686B00091CDE90101694688
:101510000020049004A8FFF7D1FF03460498211887
:1015200025B108B10A4600E022462A6000280DD005
:10153000002B02DD0098884208D03246081B69461D
:101540000094CDE9010404A8FFF7B8FF06B070BD10
:10155000ABFFFFFFC3FFFFFFCF010000431A28BF0F
:101560009A427FF6BEA9104410F0030F11441EBF2B
:1015700011F8013D521E00F8013D10F0030F7FF4F9
:10158000F6AF103AC0F00A8010B531E91850103AA1
:1015900020E91850BFF4F9AFBDE81040530724BF4D
:1015A00031E9081020E9081044BF51F8043D40F823
:1015B000043D12F0030F08BF7047D20728BF31F86F
:1015C000023D48BF11F8012C28BF20F8023D48BF5A
:1015D00000F8012C70474FF000020429C0F012807F
:1015E00010F0030C3FF4B9A9CCF1040CBCF1020FCC
:1015F00018BF00F8012BA8BF20F8022BA1EB0C01AB
:10160000FFF7ABB95FEAC17C24BF00F8012B00F8FB
:10161000012B48BF00F8012B7047000000487047BD
:10162000C4B9002000487047A4B9002030B5B0F11B
:101630000A024FEA900E71F100034EEA817EB0EB90
:101640000E0061EB91014FEA101E4EEA017E10EB95
:101650000E0041EB11114FEA102E4EEA016E10EB15
:101660000E0041EB11214FEA104E4EEA014E10EBF5
:101670000E0041EB1141401841F100014FEAD0004A
:1016800040EA41704FEAD10110EB80054FEA810436
:1016900044EA907444EB01046D1944EB0404521BBA
:1016A000A3414FF0000348BF0A3200D530BD401CB3
:1016B00041F1000130BD10B50446FFF7B7F90068ED
:1016C000005D00F0010010BD2DE9F0411F46044609
:1016D00003260168072A01F4006004DB08B116A59F
:1016E00005E016A503E008B115A500E015A521F059
:1016F00010002060A069C01EA0610FB1401EA06153
:101700002046FEF73BFE4FB1D4E901213846904711
:10171000206A401C2062C01C206206E0206AFAE7B2
:10172000D4E9012115F8010B9047761EF8D2204626
:10173000FEF73AFEBDE8F0814E414E006E616E004C
:10174000494E4600696E66002DE9F34F4FF0000ADE
:101750000C4656468DB001200C9001F10C000B9008
:1017600062690B980121904705002DD0252D2CD0C2
:10177000216A8847C0B162690B9801219047216AAC
:1017800088470028F7D16269411E0B98904700E016
:10179000761CA1690D988847216A88470028F7D1EF
:1017A000E1690D988847DBE7A1690D988847A84251
:1017B000074601D1761CD3E7E1690D9888477F1C65
:1017C00002D1BAF1000F6FD06BE162690B9800276C
:1017D0003D46394690472A2804D162690B98012179
:1017E00090470125DFF8D08262690B98012190476C
:1017F000A0F130010A290AD24745E5DC07EB870151
:1018000000EB4107303FDFD445F01005ECE7E90677
:1018100001D46FF000476C280AD04C2814D06828F7
:1018200015D06A280DD074281CD07A281AD01DE053
:1018300062690B98012190476C2802D045F004059D
:1018400014E045F002050DE045F020050AE062696C
:101850000B9801219047682802D045F0080505E063
:1018600045F4006562690B9801219047C4E901576E
:1018700065283DD019DC58287AD00CDC452837D0B3
:1018800004DC252826D041289ED131E046282FD0DF
:10189000472899D12CE05B2877D0612828D063288D
:1018A0007CD0642823D15AE0F6E06F2848D008DCC9
:1018B00066281DD067281BD0692821D06E2816D134
:1018C00027E0702845D0732868D0752847D078283D
:1018D0000DD14DE0A1690D988847252805463FF4B4
:1018E00069AFE1690D9888476D1C3FF46AAFD8E095
:1018F0000D9923466A466FF001001EF02EFEC5E0EA
:1019000045F0400023464FF000026060A80736D43F
:101910003EE0E8077FF447AF2068011D21600068C2
:10192000290501D506701BE7290701D5068017E7B1
:10193000A90703D5F117C0E9006111E706600FE7B9
:1019400045F0400023464FF008026060A80716D417
:101950001EE040F60E0125EA0100606016E045F049
:10196000400023464FF00A026060A80707D40FE04A
:1019700045F040006060A80708D5234610220D9965
:101980006FF00100AFF3008080E007E010222346F3
:101990000D996FF00100AFF3008077E04FF0000980
:1019A00063284F46C8464B46CB4602D05B2806D03C
:1019B00038E0E80601D40120A060012732E0626926
:1019C000D4F80CB00B98012190475E2807D14FF056
:1019D000010949466269D4F80CB00B989047216917
:1019E00039B900210A4603AB43F82120491C0829D4
:1019F000FADBD8B3216949B308F1010862690B9891
:101A0000012190475D28F4D1B9F1000F09D00020E1
:101A100003A951F82020D24341F82020401C082877
:101A2000F7DB03AB2069002820794FEA40701ED015
:101A30005B462246CDF80080CDE901970D9900283C
:101A40006FF0010020DAAFF300801FE0C11703AA96
:101A500000EBD1614B1121F01F0102EB8302411A0F
:101A600013680120884003431360C7E719E00D990C
:101A7000224600286FF00100009702DAAFF30080E1
:101A800004E0AFF3008001E0AFF3008000280ADA41
:101A9000401C06D10C9820B14FF0FF300FB0BDE8CC
:101AA000F08F5046FAE7E90701D10AF1010A06442E
:101AB00000200C9054E60000CCCCCC0C2DE9F04773
:101AC000814616468AB0334878440DC88DE80D002B
:101AD00030487844801C03AC0DC884E80D0041F602
:101AE0009B300844372190FBF1F290FBF1F5A5F112
:101AF000800501FB12041B3C02D56442012000E07A
:101B00000020DFF890A080460027FA44AAF1BE0A20
:101B10000DE0E00709D03246684607EB47010AEBC3
:101B2000810100F078FD8DE8070064107F1C002C17
:101B3000EFD1184F7F44AC3F18E0E80714D007EB13
:101B400004100DF1180A90E80E008AE80E00C06833
:101B5000F04201D198190890324606A903A800F076
:101B60005AFD03AB83E807006D10641C002DE4D11F
:101B700032466946B8F1000F03A802D000F023FDF9
:101B800001E000F048FDC9E90001C9F808200AB0E9
:101B9000BDE8F087B0B00300007B00F08000704724
:101BA00000487047A4B900207546FFF7F9FFAE461C
:101BB00005006946534620F00700854618B020B559
:101BC000FEF79AFBBDE820404FF000064FF00007FB
:101BD0004FF000084FF0000B21F00701AC46ACE8D5
:101BE000C009ACE8C009ACE8C009ACE8C0098D4642
:101BF000704700002DE9FF4F1F464FF03C0987B0AA
:101C00004FF00042DDE9141001F10108DDF858A0A1
:101C100002EA4050039000200490834605460446A3
:101C20000590B969461E08988847AAF1010A0290F2
:101C3000BAF1000F37DD02982E2815D0102100F0E0
:101C400018FA00282ADB4FF0010B0499014316D043
:101C5000B9F1000F0BDB4A46C11700F0F7F9054355
:101C60000C43A9F1040905E00120059007E008B143
:101C700045F0010501200490059800B9361DB969A9
:101C8000089808F101088847BBF1000FAAF1010A82
:101C90000290CDD00999C1F80080C9E70298702858
:101CA00008D0502806D0F96908988847BBF1000F82
:101CB00014D04FE0002002900120BBF1000F0490EF
:101CC00009D0B969089808F101088847AAF1010903
:101CD000B9F1000F07DCF969089888476FF0010037
:101CE0000BB0BDE8F08F2B2804D02D280CD14FF07D
:101CF000FF300490B969089808F101088847A9F1F4
:101D00000109B9F1000FE6DD411CE4D00A2100F021
:101D1000B0F90028DFDB029908F1010801EB81012D
:101D200000EB41000290B969089888470A2100F049
:101D3000A0F9099AA9F10109B9F1000FC2F80080D0
:101D400001DD0028E7DAF9690898884704990298C4
:101D500000FB016655EA040004D004F0404109008C
:101D600002D006E0039898E0A40044EA9574AD0020
:101D7000B61E04F00041080002D16D196441761EC0
:101D8000159810F0240F03D04FF00B095C4803E0C6
:101D90004FF028096FF07D008246564507DAAAEB1E
:101DA00006018944B9F1410F01DD4FF041090120DD
:101DB0000021A9F1010200F049F9024628400B4632
:101DC0002140084301D0012100E00021501E029172
:101DD00043F1FF3128402140084301D0012000E0B9
:101DE00000200299834651EA0B014FD0002108469A
:101DF0004FF00000039900F4400039B100EB80007F
:101E00004FF4400100EBD07001EA6000801501281A
:101E100002DD4FF0FF3000E013D0401C36D00298B6
:101E200060B3BBF1000F0CD14A460120002100F045
:101E30000DF928402140084301D0012000E0002096
:101E4000E0B101204A46002100F000F903464019A4
:101E50000A4661412D1A8C4111D3B9F1400F09DDB9
:101E6000159810F0240F02D0AAF1340603E0AAF16D
:101E7000170600E0761C00254FF0004406E05B1ECC
:101E800042F1FF3220EA030521EA0204CAF101000F
:101E9000B04206DA1B4903980843019000200090E5
:101EA0000EE0039AC4F3D321E80A0A43164940EA34
:101EB00044500A433146CDE90002684619F088FBD8
:101EC000159810F0240F0BD01598C00715D138685D
:101ED000DDE90012031D3B600068C0E900120CE060
:101EE00002A8694619F028FB1598C00705D1386883
:101EF000029A011D3960006802604046F0E6000069
:101F000002FCFFFF0000F07F0000F03F2DE9FF4FD3
:101F100092461D4685B04FF00041DDE9124BDDE9E8
:101F200014727F1E01EA4B50414940F0FF4940EADC
:101F30000108002122F020004928049102D04E28F7
:101F400028D04CE03BA0012607C88DE80700A9690E
:101F50000698641C88477F1E014606D41DF80600BB
:101F600018B121F0200181420BD0E9690698884719
:101F7000032E34D0082E32D06FF0010009B0BDE836
:101F8000F08F761C032E01D0082EE0D1601CCAF819
:101F90000000DCE7A9690698641C88477F1E2AD4E4
:101FA00020F02000412826D1A9690698641C8847A2
:101FB0007F1E20D420F020004E281CD1A96906984D
:101FC000641C88477F1E48F4002849F48009CAF839
:101FD000004001D4282806D0E969069888475FEABE
:101FE000CB7012D022E0A9690698641C88477F1E36
:101FF00001D4002803DAE96906988847BCE7292854
:10200000F1D1641CCAF80040E9E71BF0240F07D0A7
:1020100028680499031D2B600068C0E9001805E0DA
:102020002868021D2A600068C0F800902046A5E7D5
:102030000000F07F494E46494E49545900000000C7
:102040000446AFF300802046FEF7F5F8B2F1200316
:102050000AD5C2F1200301FA02F120FA03F300FAD3
:1020600002F041EA0301704700FA03F14FF000006B
:1020700070473A2800D2303820F02002412A01D39C
:10208000A2F13700884201D34FF0FF3070475FEA7A
:10209000400C08BF91F0000F4FEA8C234FEAC12299
:1020A00043EA51514FEA1C5018BF00F5F0404FEA87
:1020B000300018BF41F000415FEA6C5C00F02980FD
:1020C000BCF1FF3F08BF40F080407047130C06BFD3
:1020D00012044FF0100C4FF0000C130E04BF12024C
:1020E0000CF1080C130F04BF12010CF1040C930F38
:1020F00004BF92000CF1020CD30F04BF52000CF18C
:10210000010C11464FF00002A0F11F00A0EB0C00E3
:10211000704711F0004F08BF704731F000413FF4A5
:10212000D5AF0B0C06BF09044FF0100C4FF0000C9C
:102130000B0E04BF09020CF1080C0B0F04BF0901C0
:102140000CF1040C8B0F04BF89000CF1020CCB0FB7
:1021500004BF49000CF1010CCCF12003A0EB0C00F2
:1021600022FA03F302FA0CF241EA030100F1010042
:10217000704720F07F4C80EA030023F07F47ACEBF0
:10218000070303F57C5300F0004003F1FF032DE942
:1021900080494FEA154B09B44FEA144325EA0B4E28
:1021A00024EA03480FF2042606EB132749083E7879
:1021B0005FEA320203FB0667C7F5000707FB06F676
:1021C0004FEA54374FEAD64606F1020607FB066C83
:1021D000CCF1005C4FEA1C472CEA074C07FB06F4E5
:1021E0000CFB06F504EB15464FEA961634BF0020AB
:1021F0004FF000404FEAD13706FB07FC4FEA1C4C7A
:102200000CFB0BF7D21B03FB0CF761EB07010CFB7C
:102210000EF7B0EB074072EB17420CFB08F734BF28
:10222000A2EB0742B2EB074261EB17414FEA0C44C5
:102230004FEA910706FB07FC4FEA1C4C0CFB0BF71F
:10224000B0EBC74072EB573203FB0CF734BFA2EB85
:10225000C742B2EBC74261EB57310CFB0EF7B0EB54
:10226000C70072EB57720CFB08F734BFA2EBC70232
:10227000B2EBC70261EB5771039F4FEA816141EAFC
:10228000921104EBCC044FEAD1374FEA826206FB8D
:1022900007FC42EA90124FEA80604FEA1C4C0CFBAC
:1022A0000BF7D21B03FB0CF761EB07010CFB0EF7DE
:1022B000B0EB074072EB17420CFB08F734BFA2EB00
:1022C0000742B2EB074261EB17414FEA8C554FEAE8
:1022D000910704EB9C2406FB07FC4FEA1C4C0CFB0B
:1022E0000BF7B0EBC74072EB573203FB0CF734BF70
:1022F000A2EBC742B2EBC74261EB57310CFB0EF7C2
:10230000B0EBC70072EB57720CFB08F734BFA2EBBF
:10231000C702B2EBC70261EB577115EB4C254FEAD0
:10232000816141EA92114FEA82624FEAD13742EA73
:10233000901206FB07FC44F100044FEA80604FEA6C
:102340001C4C0CFB0BF7D21B03FB0CF761EB0701DA
:102350000CFB0EF7B0EB074072EB17420CFB08F7D3
:1023600034BFA2EB0742B2EB074261EB174115EB1A
:102370001C154FEA813141EA92414FEA823242EA2A
:1023800090424FEA80304FEA0C7644F1000448EA6C
:1023900003434EEA0B484FF0000EB2EB080C71EB12
:1023A000030724BF624639464EEB0E0E4FF0000B7A
:1023B0000018524149414BEB0B0BB2EB080C71EB8F
:1023C00003077BF1000B24BF624639464EEB0E0E2D
:1023D0004FF0000B0018524149414BEB0B0BB2EB95
:1023E000080C71EB03077BF1000B24BF62463946F2
:1023F0004EEB0E0E51EA020718BF46F0010616EB2F
:102400000E7655F1000254F1000103D5BDE88901B3
:10241000BDE80088BDE88901BDE80048B619524111
:1024200041EB0101A3F10103704780807F7E7D7C39
:102430007B7A7978777676757473727171706F6E56
:102440006E6D6C6C6B6A6A69686867666665646401
:10245000636362616160605F5F5E5E5D5D5C5C5B8B
:102460005B5A5A59595858575756565555555454FA
:10247000535352525251515050504F4F4F4E4E4D58
:102480004D4D4C4C4C4B4B4B4A4A4A4949494848A4
:1024900048474747474646464545454444444443E4
:1024A00043434342424242414141000046EA06461C
:1024B000A3F570534FEA164646EA42564FEAD22237
:1024C00042EA415210B54FEAD121A3F1010300F0D5
:1024D00017F820F0004000F1010C00F0004701EB7C
:1024E00000501146BCF5006F40EA070000D210BD55
:1024F00002484FF0000140EA070010BD0000F07FE5
:10250000002B26D4770021D01CB54FEA370703B43F
:102510004FF010004FF010014FF000000FBCBDE86D
:1025200010400BF1010BBBF1010F08BF5FEA170769
:1025300022BF12F1010211F101014FF0004143F1FC
:10254000000300F0004043EA00007047F9D3570849
:10255000DAE746EA064613F1400F4FEA16461FDD5A
:1025600013F1200FDFBF16430A46002120335B42E0
:10257000C8D0C3F1200746EA064602FA07F74FEA39
:10258000164646EA0706C3F1200722FA03F201FACB
:1025900007F721FA03F14FF0000342EA0702B1E71F
:1025A00046EA020646EA06464FEA164646EA0106AB
:1025B000BCBF46EA0646360C4FF000034FF000025F
:1025C0004FF000019EE72DE9C048934630B491E8F2
:1025D000380007C831EA400C48BF34EA430C03D541
:1025E000FFF7C7FDFFF78CFFF0BCBDE800882DE9C1
:1025F000C048934630B491E8380007C831EA400C2F
:1026000048BF34EA430C03D5FFF7B3FDFFF74EFF95
:10261000F0BCBDE800882DE9C048934630B491E88D
:10262000380007C810F0804F08BF13F0804F03D167
:1026300000F019F8FFF764FFF0BCBDE800882DE951
:10264000C048934630B491E8380007C810F0804F76
:1026500008BF13F0804F03D100F005F8FFF726FF05
:10266000F0BCBDE8008820F07F4780EA030023F03B
:102670007F4C07EB0C03A3F57C5300F00040A3F163
:10268000FE0392F0000F00F0B38095F0000F00F011
:1026900077802DE901494FEA11404FEA144621EABB
:1026A000004800FB06FC24EA064708FB06F607FB89
:1026B00008F800FB07F718EB06484CEB164C4FEAFE
:1026C000124B18EB07484FEA15464CEB174022EA2D
:1026D0000B4E0BFB06FC25EA06470EFB06F607FB36
:1026E0000EFE0BFB07F71EEB064E4CEB164C4FF0A5
:1026F00000061EEB074E4CEB174B18EB0B0840F196
:10270000000018EB0E0B58EB000840F100008F1A88
:102710004FF000013CBFC943661B14BFB5EB040C6E
:1027200000213CBFC943F61B4FEA17444EEA8E0E08
:1027300027EA04454FEA1C4704FB07622CEA074CD2
:1027400005FB07F70CFB05F604FB0CFC16EB074634
:1027500042EB174216EB0C4642EB1C421BEB060603
:1027600058EB0202414146EA9E0601D5BDE80189C7
:10277000B619524141EB0101A3F10103BDE8018902
:102780004FEA14454FEA114724EA054621EA074C6F
:1027900005FB07F406FB07F70CFB06F105FB0CFC39
:1027A00011EB074144EB17444FEA124711EB0C4180
:1027B00044EB1C4422EA074C05FB07F206FB07F733
:1027C0000CFB06F605FB0CFC16EB074642EB17422A
:1027D00016EB0C4642EB1C456A1854F1000148BF49
:1027E0007047B619524141EB0101A3F10103704753
:1027F00095F0000F37D04FEA11424FEA144721EA13
:10280000024624EA074C02FB07F106FB07F70CFB24
:1028100006F402FB0CFC14EB074441EB17414FEAB2
:10282000154714EB0C4441EB1C4125EA074C02FB15
:1028300007F506FB07F70CFB06F602FB0CFC16EB94
:10284000074645EB174516EB0C4645EB1C421219A3
:1028500051F1000148BF7047B619524141EB0101E7
:10286000A3F1010370474FEA14454FEA114724EAE8
:10287000054621EA074C05FB07F106FB07F70CFBB1
:1028800006F24FF0000605FB0CFC12EB074241EB91
:10289000174112EB0C4251EB1C4148BF7047921894
:1028A00041EB0101A3F10103704706F0CDB870B50B
:1028B00015460E46044608E02046641CA4B200F00B
:1028C00007F86D1E06F8010BADB2002DF4D170BDF6
:1028D00010B5044606F05CF9200AA02101EB400087
:1028E000C0B206F021F906F095F9E0B206F01CF945
:1028F00006F090F906F04CF9A12006F015F906F063
:1029000089F9002006F0DAF8044606F061F920465D
:1029100010BD70B514460D46064606E029783046CF
:1029200000F007F8761CB6B26D1C641EA4B2F5D296
:1029300070BD70B50D46044606F02AF9200AA021A4
:1029400001EB4000C0B206F0EFF806F063F9E0B228
:1029500006F0EAF806F05EF9284606F0E5F806F01B
:1029600059F906F035F9BDE870400A2019F034BA7B
:102970001CB50021009103460191034A032103483D
:1029800002F008F81CBD0000B1B60108881E02085C
:10299000008840BA7047000038B5456804460146D3
:1029A00028460DF050FB00282BD02068304A112813
:1029B0000DD006DC0B2825D00E2833D00F2852D19D
:1029C00012E0282849D0B0F5107F4CD108E0926879
:1029D000002A16D02146284601B0BDE830401047F5
:1029E000214628465268F7E7284601F009FE009084
:1029F000406E0468684601F06DFE002C01D0284648
:102A0000A04738BD284601F0FBFD0090683001F07A
:102A10004DFD009803216C3001F056FD684601F031
:102A200059FE20E0E168486809680D2902D0202994
:102A300013D105E0002810DD284616F064FC06E0FE
:102A4000002804DD2846BDE8384016F05CBC284666
:102A5000BDE83840022116F06CBCE06818B90021CE
:102A6000284600F0ACF92046BDE838400DF07EBEA7
:102A70006C020020F0B5044685B08069B4F90850B6
:102A8000668A0027CDE90265CDE900170490B4F904
:102A90000C00B4F91060C118B4F90A00B4F90E5072
:102AA000104433462A4600F007F80546616800F0F6
:102AB0008FF905B02846F0BD2DE9F04F85B01F46CF
:102AC000DDE911B4DDE90E5690468946824603F0F1
:102AD00017F816484C34CDE90204CDE900563B46C0
:102AE0004246494650460DF089FD040018D001F0D9
:102AF00087FD1022594604900DF0B0FB0498302257
:102B00000B493430FDF7EDFE094D04990C3D286862
:102B1000486604A801F0DEFD286841682046884721
:102B200004F0DCFC05B02046BDE8F08F99290008D0
:102B300078020020F0B5044680688B4989B051F8CE
:102B40002050606800287DD0052804D006287AD05F
:102B5000122879D1AEE0E86900284FD095E80E0040
:102B60008DE80F0004F110010FC905F0CBF8002625
:102B700055F8260003F0CDFDA169E8690A1A21691C
:102B800001446069304402F065FAA169E8690A1AF3
:102B900021690144E069801B02F05CFAE169E8699F
:102BA0000A1A616901442069304402F005FBE169B9
:102BB000E8690A1A61690144A069801B02F0FCFA05
:102BC000761C022ED4DBA86803F0A3FDE069E96956
:102BD0006669431A206942183144801C521E02F073
:102BE00047FBE169E869A2690B1A61690144101A9F
:102BF000401C921E02F03CFBEE6913E05FF0000601
:102C000055F8260003F085FDE069831BA069821B4F
:102C1000606981192069304402F06EFA761C022E38
:102C2000EEDB0226D5E90301CDE900016169E06927
:102C300008444310A069891C821B2069304402F0BB
:102C4000CDF902E089E012E08AE0D5E90501CDE99D
:102C50000001E36960690121184401EB6001A0698A
:102C60009B1E821B2069304402F0B8F978E020688E
:102C700001F0C6FC049020680FF0C8F840B1A068CD
:102C800008B1002008E00498006F28B1012003E09B
:102C90000498406F00B10220049901EB8000C56EDA
:102CA00004A801F017FD00231A462846216801F008
:102CB00091FF55E0206801F0A3FC0490866EEEB30E
:102CC000B0F95C70A168D1B3032942D05FF0000174
:102CD00000EB8101406D0C6C03F04AFD204603F0CF
:102CE00018FD05A802F086FBBDF81410A88B01445E
:102CF000ADF81410BDF81810081AADF81800BDF89A
:102D00001600801CADF81600BDF81A00801EADF844
:102D10001A000498B0F96020B0F95E1005A803F01D
:102D2000B4FB04A801F0D6FC022003F08DFD304670
:102D300001F066FC3A4605A9079001E00BE006E0C9
:102D400002F02AF80DF11C0001F0C4FC08E001219A
:102D5000BEE70221BCE704A8F6E720680EF0C2FC3B
:102D600009B00020F0BD0000F0C1030838B505002F
:102D70004FF000040DD002F0C3FE284601F040FCE5
:102D80000090408EC0F30024684601F0A3FC04F0DC
:102D9000A5FB204638BD38B50D4604000ED002F024
:102DA000AFFE204601F02CFC00904565684601F01E
:102DB00091FC20460EF012FA04F090FB38BD4FF45F
:102DC00080720029114601D00DF0D1B90DF022B961
:102DD0002DE9FF410E4605004FF0010421D002F01D
:102DE0008FFE284601F00CFC0190876E01A8009729
:102DF00001F070FC3146684605F0D2FA78B10098CF
:102E00000024B84208D0284601F0FAFB019000994E
:102E1000816601A801F05EFC28460EF0DFF904F09F
:102E20005DFB04B02046BDE8F081000010B5032230
:102E3000002101201BF03CFD0B490322086000210A
:102E400001201BF035FD0949032208600021012003
:102E50001BF02EFD064903220860002101201BF013
:102E600027FD0449086010BD100000201400002058
:102E70001800002048000020FEE7000070B5094D52
:102E8000FF22134605F5807605E010F8014B54400B
:102E90002A5D5A40335D491E89B2F6D243EA0220C8
:102EA00070BD0000709D030870B50F4C0025C4F87C
:102EB00084510E48016821F0F0010160016841F081
:102EC00030010160052004F5C27418F0A1FF084824
:102ED000C0F8A451052018F09BFF012020600520B8
:102EE00018F096FF256070BD00802142041C01404F
:102EF000008023421348816941F0080181618169A2
:102F000041F0800181611048016821F0F001016009
:102F1000016841F0300101600C48016821F0F001C6
:102F20000160016841F03001016007480C30016820
:102F300041F00201016005480830016841F4007168
:102F40000160704700100240000C0140041C014069
:102F500070B50F4C0026C4F884610E48016821F05A
:102F6000F0010160016841F030010160052004F5C5
:102F7000C27418F04DFF08480125C0F8A45105207F
:102F800018F046FF2560052018F042FF266070BD4E
:102F900000802142041C0140008023422DE9F047BB
:102FA000824618480024016821F0F00101600168A0
:102FB00041F0800101601E2018F02AFF0025124E0A
:102FC000DFF848902F464FF00108C6F884710520BD
:102FD00018F01EFFC6F884816006040ED9F824019B
:102FE00008B1641CE4B26D1CEDB2082DEDD3BAF14A
:102FF000000F04D0FFF758FF2046BDE8F087FFF729
:10300000A7FFF9E7041C0140008021420080234211
:103010002DE9F04705461548016821F0F0010160EF
:10302000016841F030010160114E0027C6F884713B
:10303000052018F0EDFEDFF83C8000244FF0010978
:10304000E909C8F8A4116806050EC6F884910520A0
:1030500018F0DEFEC6F88471052018F0D9FE641C55
:10306000E4B2082CECD3BDE8F0870000041C01405A
:10307000008021420080234270B50F48016821F092
:10308000F0010160016841F0300101600B4E012048
:10309000C6F8A4010A4DC5F884011E2005F5C275C5
:1030A00006F5D27618F0B4FE00243460052018F03E
:1030B000AFFE2C6070BD0000041C01400080234264
:1030C0000080214270B50D48016821F0F0010160D7
:1030D000016841F03001016009480125C0F88451C0
:1030E0001E2018F095FE074C0020C4F8A40105200E
:1030F00004F5D27418F08CFE256070BD041C0140EC
:10310000008021420080234270B5124800240168EB
:1031100021F0F0010160016841F0800101600E4D75
:103120000120C5F8A4010D4EC6F8840107E0641C17
:10313000E4B2FA2C03D9FFF7C5FF012070BD0520CA
:1031400018F066FED5F824010028F0D1C6F88401F5
:1031500070BD0000041C0140008023420080214219
:103160000348002202604260472131200BF01EBF5D
:10317000A000002010B5202000F058F8802000F0BA
:1031800055F8BDE810400021014800F05BB8000090
:103190001C00024010B5094C601500F047F8E0141F
:1031A00000F044F80021204600F04CF8A1156160C1
:1031B0002046BDE81040012100F044B83000024034
:1031C00010B50A4C4FF4001000F030F84FF4000036
:1031D00000F02CF80021204600F034F8A1156160C1
:1031E0002046BDE81040012100F02CB86C000240E0
:1031F00010B54FF0007000F019F84FF0006000F0CB
:1032000015F8BDE810400021014800F01BB800008F
:1032100080000240C10002D502490860704702499F
:10322000486070470404024000000240C10002D51B
:103230000249086070470249486070470404024030
:10324000000002400029016802D041F0010102E0C3
:103250004FF6FE72114001607047000001684FF6A2
:10326000FE72114001600021016041608160C16017
:103270003149314A0839904203D1486840F00F0083
:1032800006E02D4A1432904204D1486840F0F00024
:1032900048607047284A2832904203D1486840F479
:1032A0007060F5E7244A3C32904203D1486840F40C
:1032B0007040EDE7204A5032904203D1486840F414
:1032C0007020E5E71C4A6432904203D1486840F41C
:1032D0007000DDE7184A7832904203D1486840F028
:1032E0007060D5E7154A111F904203D1086840F07D
:1032F0000F0006E0114A1432904204D1086840F0F1
:10330000F000086070470D4A2832904203D10868E7
:1033100040F47060F5E7094A3C32904203D10868F6
:1033200040F47040EDE7054A50329042EAD1086817
:1033300040F47020E5E70000080002400804024065
:10334000406880B27047002A026801D00A4300E05A
:103350008A430260704730B5026847F6F0739A43BB
:103360000C6A8B682343D1E904452C4323438C69C1
:103370002343CC6923434C6A23438C6A234313437E
:103380000360CA6842600A6882604968C16030BDF3
:10339000416070472DE9F04101218CB0084608F0EA
:1033A000F7FADFF8A4804046FFF758FF2848274E79
:1033B000CDE900600024102007010794CDE9020741
:1033C0008025CDE904450002CDE908400694694610
:1033D00040460A94FFF7BFFF012202214046FFF753
:1033E000B2FF012208214046FFF7ADFF0121404610
:1033F000FFF728FF00214046FFF724FFDFF8488051
:10340000A8F114084046FFF729FF124801A90096C9
:1034100081E89100CDE90445A801CDE90840069472
:103420000794694640460A94FFF795FF012202215E
:103430004046FFF788FF012208214046FFF783FF3F
:103440000CB0BDE8F0810000800002400444004060
:1034500078060020780700202DE9F04101218CB08A
:10346000084608F095FADFF8A4804046FFF7F6FE1C
:103470002848274ECDE9006000241020070107945A
:10348000CDE902078025CDE904450002CDE90840D9
:103490000694694640460A94FFF75DFF0122022127
:1034A0004046FFF750FF012208214046FFF74BFF3F
:1034B00001214046FFF7C6FE00214046FFF7C2FE4D
:1034C000DFF8488008F114084046FFF7C7FE1248AD
:1034D00001A9009681E89100CDE90445A801CDE954
:1034E000084006940794694640460A94FFF733FF64
:1034F000012202214046FFF726FF01220821404613
:10350000FFF721FF0CB0BDE8F08100001C00024075
:10351000044800407C0900207C0A0020704700001D
:103520008000A0F1C0400029016802D041F00101F3
:1035300001E0024A1140016070470000FEFF0F00E9
:1035400010B5D0E901121143D0E903231A43114306
:103550004269114382691143C2691143026A1143EE
:10356000426A1143826A1143C26A1143026B1143DA
:1035700002689200A2F1C04211608168082907D157
:1035800001688900A1F1C0410A6842F040020A6066
:10359000416BD1E9002342EA03128B688C891B023C
:1035A00043EA04431A430B8A42EA03520B7D8969BA
:1035B00042EA03620A4301688900A1F1C0414A60FE
:1035C000C16AB1F5804F08D000686FF0704180008B
:1035D000A0F1C040C0F8041110BD816BD1E90023F7
:1035E00042EA03128B680C8A1B0243EA04531A4313
:1035F0000B7D896942EA036200680A438000A0F1FA
:10360000C040C0F8042110BD3A48416941F48071BE
:103610004161816941F020018161816941F040018E
:103620008161816941F080018161816941F480712A
:1036300081613148016800210160026842F0BB32BB
:103640000260001F026802F0FF220260026842F07E
:10365000BB120260294802680160026842F0BB3276
:103660000260001F0268264B1A4002600268254B68
:103670001A4302602448026892B202600268234B37
:103680001A430260001F026802F07F420260036872
:103690001F4A134303601F48436823F47063436069
:1036A000436843F430634360036803F07F4303607F
:1036B0000368134303604FF0204001614161C0F88B
:1036C0001411016941F480510161016941F0100157
:1036D0000161416941F44071416141694161416960
:1036E00041616FF07041C0F81411016941F00101AE
:1036F00001617047001002400414014004180140A9
:1037000000FFFF0FBB0000B0041C01400000BBBB6A
:10371000BBBBBB000020014038B52B48816941F09C
:10372000800181612948016821F47F4101600168BD
:1037300041F46051016025480830016841F440615E
:103740000160FFF7D7FB224D0024C5F8AC411420DF
:1037500005F5D67518F040FB01202860322018F0DE
:103760003BFB8DF8004001226946002000F0FEF886
:1037700001226946A42000F0F9F816208DF8000017
:1037800001226946802000F0F1F80C208DF800003D
:1037900001226946882000F0E9F802226946A1204A
:1037A00000F01EF89DF80000302803D19DF80100BC
:1037B000032801D0012038BD43F2030105A0FCF726
:1037C000BBFD002038BD000000100240041C014079
:1037D000008023424354502049443A25780D0A0082
:1037E0002DE9F04115460F460446FFF745FC7020D1
:1037F000FFF70EFCFFF788FCE0B2FFF709FCFFF7CC
:1038000083FCFFF739FC7120FFF702FCFFF77CFC1B
:1038100000246E1E09E0B44201D0012000E0002027
:10382000FFF7BCFB3855641CE4B2AC42F3D3BDE8EF
:10383000F041FFF747BC00002DE9F143484F002459
:103840004FF00A09387882B0401CC0B2B0FBF9F2E0
:1038500009FB1201434DA046387009B10A2863D212
:10386000012202A90220FFF7BBFF9DF80800010713
:103870005AD000F00F00062856D2FF218140C843DD
:1038800040F0C00085F820004FF00108002695F8B0
:10389000201008FA04F0014239D033480422694666
:1038A00030F81400FFF79CFF95F830009DF80010E9
:1038B000C0079DF8010001F00F010ED000EB0121BF
:1038C00005EB4400C1829DF802209DF8031002F030
:1038D0000F0201EB022181810FE000EB0120C0F516
:1038E000F07105EB440081819DF802209DF80310E2
:1038F00002F00F0201EB0221C1829DF800000821B5
:10390000B1EB101F03D005EB4400C6828681641C16
:10391000E4B2052CBBD3A9894FF0010819B9E88A94
:1039200008B98DF808603E709DF80800C0060ED1F9
:1039300095F82000010602D520F0800005E04FF642
:10394000FF71A981E98200F0E00085F82000387855
:10395000F02801D987F800904046BDE8FE830000BA
:10396000640000206C000020561D02082DE9F04183
:1039700015460E4604460027FFF77EFB7020FFF732
:1039800047FBFFF7C1FBE0B2FFF742FBFFF7BCFBD1
:10399000002408E0305DFFF73BFBFFF7B5FB0700B5
:1039A00003D1641CE4B2AC42F4D3FFF78BFB38467E
:1039B000BDE8F0812DE9F0430446C56887B0904624
:1039C0008946002002F0C8FE064625B1287910B1CC
:1039D00046F0020001E026F0020002F0BDFE206980
:1039E000012558B1D4E902128DE8260003956388B9
:1039F0002288046841464846A0471EE0124F134BF8
:103A0000214638681B68427CE068984730B9E088F6
:103A1000012801D0002001E03868806BA288E3888B
:103A2000A1680095CDE90410CDE9023201956388C3
:103A300022884146484605F0FBFA07B03046BDE80B
:103A4000F04302F089BE0000D4010020CC01002028
:103A500070B514460E4605460119001B00F0A2FC85
:103A600022463146284613F015FBBDE8704000F0B1
:103A7000EDBB000010B5002002F040FE6FF07F406B
:103A800002F047FE012002F0C1FE002002F0CCFE51
:103A9000002002F0D9FE002002F05EFE044800681B
:103AA00002F066FEBDE81040002002F081BE00007A
:103AB000D0010020F0B5CC78002204F00F03E4061A
:103AC00001D58C7823430C784FF00F0C14F0FF0FC6
:103AD0004FF0010E1BD005680E880EFA02F4264046
:103AE000A64210D196000CFA06F725EA070703FA5A
:103AF00006F5CE783D43282E02D0482E02D002E0B3
:103B0000446100E00461521C082AE5D305600A887C
:103B1000FF2A1CD94468002202F108060EFA06F5B5
:103B20000E882E40AE420ED196000CFA06F7BC432A
:103B300003FA06F7CE783C43282E00D14561CE78B3
:103B4000482E00D10561521C082AE5D34460F0BD1F
:103B5000016170472DE9FC413548816941F08001E0
:103B60008161344C206820F47F402060206840F45C
:103B7000605020602F4D0835286840F44060286070
:103B8000FFF7B8F92C4F0026C7F8AC610A2007F5FB
:103B9000D67718F021F9012038600A2018F01CF9B6
:103BA000206820F470602060206840F4006020608D
:103BB000286820F480602860642018F00DF9042241
:103BC000694648F2401000F04DF88DF804606946EF
:103BD0001AA0FCF7B1FB1CA16846FCF7E3FE10B18C
:103BE0000120BDE8FC8102208DF8000048F240046D
:103BF00001226946204600F04BF901226946E01D8A
:103C000000F030F89DF80010602905D210A0FCF7F4
:103C100093FB012000F016F90A2018F0DDF88DF86A
:103C2000006001226946204600F032F90020D8E702
:103C300000100240041C01400080234243545020E5
:103C400049443A25730D0A00393134370000000029
:103C500044656661756C74205665723A25640D0A78
:103C6000000000002DE9F04115460F460446FFF71D
:103C700003FA2820FFF7CCF9FFF746FA200AFFF7EE
:103C8000C7F9FFF741FAE0B2FFF7C2F9FFF73CFAD4
:103C9000FFF7F2F92920FFF7BBF9FFF735FA002407
:103CA0006E1E09E0B44201D0012000E00020FFF7C1
:103CB00075F93855641CE4B2AC42F3D3BDE8F04169
:103CC000FFF700BA2DE9F1475A4D00244FF00A0AD8
:103CD000287883B0401CC0B2B0FBFAF20AFB120194
:103CE000554EA046287009B10A2879D248F24E19DB
:103CF000012203A94846FFF7B5FF9DF80C004FF0DD
:103D00000007010603D500F00F01062901D3800644
:103D100006D58DF80470012201A9484600F0B8F8D4
:103D20009DF80C0001075BD000F00F01062957D267
:103D3000FF2088408DF80400C04396F8209040F0A2
:103D4000C00086F82000B089B082F08AF0834FF07E
:103D5000010896F8201008FA04F0014225D03748EF
:103D60000422694630F81400FFF77CFF96F8300013
:103D70009DF80110C0079DF8000000EB012106EB43
:103D800044000AD0C1829DF802109DF8032001EB87
:103D90000221C1F54871818107E081819DF80210FF
:103DA0009DF8032001EB0221C182641CE4B2052CC2
:103DB000CFD32349B2894FF001080B8830469A428D
:103DC00003D8C28A49888A4209D99DF80C1001F0AB
:103DD0000F0101290BD9C1898181018BF1822F70DB
:103DE0009DF80C0000F08F0080280AD018E0818A2E
:103DF0008181C18BC18280218DF80C1086F82090C2
:103E0000EEE796F82000010602D520F0800005E0DC
:103E10004FF6FF71B181F18200F0E00086F82000DA
:103E20002878F02801D985F800A004B04046BDE804
:103E3000F0870000650000206C000020181E0208BA
:103E40006A06002008B500218DF800108DF80100E9
:103E50000E489DF80020435C491C1A44C9B28DF8F5
:103E60000020B829F5D3D0B2C043401C8DF8000023
:103E7000B822064948F2470000F00AF802226946D3
:103E800048F2FF0000F004F8002008BD601D0208A1
:103E90002DE9F04115460E4604460027FFF7ECF8E1
:103EA0002820FFF7B5F8FFF72FF9200AFFF7B0F841
:103EB000FFF72AF9E0B2FFF7ABF8FFF725F9002486
:103EC00008E0305DFFF7A4F8FFF71EF9070003D103
:103ED000641CE4B2AC42F4D3FFF7F4F83846BDE812
:103EE000F08100002DE9F04FDFF828B191B04FF0DC
:103EF000FF35DBF80030B3F922100691DE69B3F923
:103F000024A0F469A189814206D8E289824203D3C0
:103F1000471AD4F8008012E0D4E90181002970D05A
:103F20000A8882426DD84D8885426AD3801A82B24F
:103F3000486800EB8200B0F90070B0F90250781CBC
:103F40005FD0307EA27C014600FB02F9207CCDE9E7
:103F50000710B3F92A60304606F080F8C0B20E9020
:103F6000DBF8001007FB0980A37C8A6B0127CDE9F1
:103F70000402CDE90273C869089AC17E807ECDE94A
:103F80000001DDE90603514605F052F8681C18D01F
:103F900046F0020006F062F8DBF80000A37C05FBA7
:103FA0000981826BCDE90273CDE90412C069089AD8
:103FB000C17E807ECDE90001DDE90603514605F0B2
:103FC00037F8DBF800005D46C069417E007E814223
:103FD00014D9022E12D086F0040006F03FF82868AB
:103FE000C069027EC37E857E02FB03A1437E089AE0
:103FF0000698534402FB050205F02CFB0E9806F0D0
:104000002DF8DBF80000627C418C1144418411B032
:10401000BDE8F08FD401002004480068C069C06981
:1040200009B1027C0A60407C70470000D401002086
:10403000022008807047C06982898A4202D8C289FA
:104040008A4210D2806880B102888A420DD84388A3
:104050008B420AD3406800EB8100A0EB8200B0F9EC
:104060000000002801DB012070470020704700009D
:104070002DE9F0432F4C034687B020681946B0F96C
:104080002A80C069C06900F082F800284ED04168DB
:104090000088181A01EBC0054046AE7805F0DEFF37
:1040A000814620686A680123816BCDE90236CDE93B
:1040B0000421C169CB7E8A7ECDE900230B7EB0F955
:1040C00024102A78B0F9220004F0B2FF2068C069F9
:1040D000477E067EB7421DD9C07E47434643B8F1AE
:1040E000020F17D001F08BF9804601F051F902F070
:1040F00010FB21682A78CB69B1F92200B1F92410AC
:10410000DB7E02FB0302CB19314405F0A3FA4046E3
:1041100002F0FFFA484605F0A1FF20686A78C369FB
:10412000B0F922109B7E02FB0311418407B0BDE869
:10413000F0830000D401002030B50E4C05460B463C
:1041400020682946C069C06900F021F8002810D015
:104150004168008824682A1A0120E46900EBC20043
:10416000085CA47E6043002B03D011F83210614339
:10417000196030BDD401002001200880704700B5CF
:10418000C06900F004F8002800D0012000BD06E05E
:1041900002888A4202D842888A4202D28068002875
:1041A000F6D170472DE9F0410025154E154C18E069
:1041B0002069C5EB051700EBC7007022001D3168B0
:1041C000FCF78FFB2069002140F8371000EBC70097
:1041D00000F10C018161011D0A1DC0E90F126D1C67
:1041E0004164A0688542E3DB14F02AF82169C0EB42
:1041F000001001EBC000001D3060BDE8F081000040
:10420000D40100200404002070B50F490D48086057
:10421000084604F0BDF80C4C143CA068C0EB00103C
:10422000C500284600F05EF92A460021206104F00E
:1042300028F94FF0FF30206003F0A4F9BDE870408A
:1042400013F0FEBF759401081804002010B513F098
:1042500013FA0448016A04480068416600F1080145
:10426000416110BD54030020D40100207CB51446E8
:104270000D46064601F044FC0DF0FCFB06440DF033
:1042800007FC05441648006890F8691021B990F8B9
:1042900068104E434D434C43301B00F023F8ADF8FB
:1042A0000000301900F01EF8ADF80400281B00F0E3
:1042B00019F8ADF80200281900F014F8ADF806005E
:1042C00068460DF02FFC06E0224629463046FFF7EF
:1042D000BFFB0DF0AFFB0028F6D103F0FFF87CBD6B
:1042E000D40100200449096891F8681009B190FBD5
:1042F000F1F000B270470000D40100202DE9F04138
:10430000224C05460E462068002788B920480068E0
:10431000E06110B905F05BFAE06100F0E3F82060BD
:1043200080B31A491B4824310860084604F030F86D
:1043300019480068854200DA0546E169731B4A1E88
:104340002046934201DD6E18761EAE4201DA2E46FB
:104350000127124C2268516E4B68836301620B493E
:104360000F4B34310B60516602C880E862000EF0DA
:1043700087FB0EF0A7F9054821682C3048613846C4
:10438000BDE8F081FFE70127D2E7000054030020D9
:10439000040200200194010808020020D40100203A
:1043A0002D6A0108044A126892F8682090FBF2F026
:1043B00091FBF2F1FFF7A2BFD4010020F8B50C0089
:1043C00005460FD001F09CFB204600F017F80600D0
:1043D00010D000F015F9224600902DB12946FCF7C7
:1043E000F9F904E00020F8BD002104F04AF868461D
:1043F00000F070F903F072F83046F8BD10B5040013
:1044000009D001F07DFB20460EF074F8044603F05D
:1044100065F8204610BD002010BD38B5054601F0F6
:104420006FFB2846FFF7EAFF040009D000F0E8F828
:104430002A460021009004F024F8684600F04AF96A
:1044400003F04CF8204638BD024A106021F003000A
:1044500050607047B8B7002010B5040016D001F0C6
:104460004FFB0B48406B10F8341059B1022909D2A8
:10447000042101EBC401415848680DF0A9FF204612
:1044800015F05CFCBDE8104003F028B810BD00003A
:10449000F8B60020002805D0034AD16B016001B1B5
:1044A0004860D06370470000F8B6002010B504469D
:1044B00001F026FB2068FFF7CFFF00202060BDE859
:1044C000104003F00BB8000070B50D4606460024FE
:1044D00005E000BF06EB8400FFF7E8FF641CAC4278
:1044E000F8DB70BD2DE9F041044614F03BFC284890
:1044F000E41C24F00305016C2D1DA94200D90D46D2
:10450000C46B13E054F8042CAA420ED184B1216884
:1045100009B162684A60616809B122680A60C26BC9
:10452000A24231D12168C1632EE02468002CE9D178
:104530008046816BC0680F1857F8040C3E1A30682B
:1045400038B1002015F04AFD57F8040C3E1A3068C7
:10455000D0B97068A84217DB3044441B3046241D94
:1045600015F0F4FCD8F80C10491BC8F80C10D8F85A
:1045700014102944C8F814107068401B02D031464A
:104580000DF026FF44F8045C2046BDE8F0810000F1
:10459000F8B6002010B5002414F0E4FB0C490F20FD
:1045A00001EBC002526C1AB101EBC000406C08E094
:1045B000401EF5D508E04168A14200D90C4680684C
:1045C00010B180680028F6D1A4F10C0010BD0000E5
:1045D000F8B60020002138B10449042202EBC000E3
:1045E000496B085841680C3908467047F8B60020F6
:1045F00002488169491C816170470000F8B60020BB
:104600000549CA69521CCA61496B01EBC0010A78AD
:10461000521C0A7000F076B8F8B600207CB5064649
:104620000C460846FFF7EAFE050020D0FEB13046F2
:10463000FFF7D0FFA04200DA044601F061FA2846F5
:10464000FFF7DEFF00903046FFF7DAFF01460190EA
:1046500022460098FCF7BEF8684600F03BF801A837
:1046600000F038F83046FFF7F7FE02F037FF284633
:104670007CBD000010B501F043FAFFF78BFF642208
:104680000849B0F5800F04D990FBF2F4086A44435E
:1046900003E0096A4143B1FBF2F402F01FFF204638
:1046A00010BD0000F8B600200549102805D94A6859
:1046B000B0EB520F02D3500800E010208860704722
:1046C000B8B7002002488169491E81617047000027
:1046D000F8B600200A4902684B6B52F8082C03EB2D
:1046E000C2021378022B03D3CB690BB15B1ECB61E3
:1046F0001178491E117000210160084670470000C2
:10470000F8B60020002806D00349042202EBC000BE
:10471000496B085808307047F8B600202DE9FC4175
:104720004FF000060B465FEA000834462BD032B14A
:1047300011461846FFF742FE060000D1012440460C
:10474000FFF75EFF0090078845686846FFF7C2FFE5
:10475000CCB9B9002846091DFFF760FF050015D048
:10476000FFF74EFF019040F8276001A8FFF7B2FF66
:104770004046FFF745FF009045600188491C0180D5
:104780006846FFF7A7FF2046BDE8FC813046FFF7EB
:1047900063FE0124F7E70820FFF73FBE7CB5050064
:1047A00023D0FFF72DFF00904068C0B1FFF728FF2E
:1047B0000024019005E0019800EB8400FFF776FEED
:1047C000641C00980088A042F5DC01A8FFF782FF76
:1047D0000098001DFFF76AFE0099002008806846D7
:1047E000FFF778FF2846FFF737FE7CBD38B5002479
:1047F00030B1FFF705FF009004886846FFF76AFFB5
:10480000204638BD38B50D46002448B1FFF7F8FE04
:104810002946009000F018F804466846FFF75AFF52
:10482000204638BD38B50D4601880024A94209D973
:10483000406838B1FFF7E4FE009050F82540684624
:10484000FFF748FF204638BD10B50024FFF7EAFF08
:1048500010B1FFF7D5FE0446204610BD70B51446D2
:104860000D46064601F04CF9204600F0D5FD030048
:10487000174804EB840109D050F821004168806892
:10488000711A2A1A184601F083FF1CE000EB81041C
:10489000A268B24201D0012200E00022E368AB42EC
:1048A00001D0012300E000231A430CD0236943B157
:1048B00050F82100816840686A1A311A184601F0E0
:1048C0009DFEC4E90265BDE8704002F007BE00002D
:1048D0001CB9002010B5C2B2CBB2D21A00D55242D8
:1048E00093B25B43C0F30722C1F30724121B00D528
:1048F0005242000C92B2A0EB114002FB023200B215
:10490000002801DA404200B280B200FB002010BD56
:1049100010B50021084600F0F5FD43F6FF72504245
:10492000BDE8104013460146AFF300802DE9FC417D
:104930001C4615460E46074601F0E2F8042005F035
:104940008DFB80461248C068C16C006D0F44064460
:104950000D440444ADF80070ADF80450ADF80260A9
:10496000ADF8064068460DF0DDF807E023462A461C
:104970003146384604F06EFE0DF05CF80028F5D1A3
:10498000404605F06BFB02F0A9FDBDE8FC8100008C
:10499000C80100202DE9F8431C00DDE908981646FF
:1049A0000F46054602D10CF01DF8044600962E680D
:1049B00043464A4621462846B047061E39D00CF0E9
:1049C00006F88146698A30460BF0D1FB30460CF080
:1049D000FBFE48460CF0F8FE4FF000080CE000BF6C
:1049E000CDF8008055F81CCF00231A4649462846CA
:1049F000E04700B30CF0E8FE7F1E002FF0DC1D2125
:104A000048460CF080FD601C12D001F079F80CF0E3
:104A10002DF830B1FFF776FE8469B44201D0200052
:104A2000F8D1B44202D030460CF02AFE02F056FD16
:104A30003046BDE8F88330460BF0D0FE0020F8E7A2
:104A40002DE9F0411C4616460D460746022B02DBB7
:104A50000020BDE8F0811C20FFF744FD0028F8D0BD
:104A60000DB105610AE0094A52F8241009B905E0C0
:104A700011460A68002AFBD10969016184618682B6
:104A8000002101604160C0E90217E2E7EC0100206B
:104A900070B51D46FFF7D4FF040009D000F00EF8F2
:104AA000E068006820B90348006800EB8500846571
:104AB000204670BDD4010020FFF7ECBC70B590B368
:104AC0008269022A30DA1E4C54F8221019B944F8CF
:104AD000220032E019464B68002BFBD106E0CB6880
:104AE000C5681B682D68AB4203DD09680029F6D153
:104AF0001AE0C1B1CB68C6681B683668B3420CD1F6
:104B0000838A012B05D008E01946DB681B68AB429D
:104B100003DB0B68002BF7D129B14B6833B1186068
:104B20004A68426004E0FFE7012070BD44F82200BB
:104B30004860884200D100210160002070BD000063
:104B4000EC01002010B503E00468FFF7B7FF204632
:104B50000028F9D110BD00000A4A816952F82130BD
:104B6000834202D1036842F82130416809B10268EA
:104B70000A60016809B142684A6000210160416031
:104B800070470000EC01002000207047022801DB84
:104B900000207047054A52F8200004E0C2681268FD
:104BA0008A42F6D000680028F8D17047EC01002056
:104BB000022801DB00207047054951F8200004E07D
:104BC000C16809680029F6D000680028F8D170474C
:104BD000EC0100202DE9F8431D46164688460400E6
:104BE0000CD0FFF70DFD0090006807686846FFF7DE
:104BF00071FD2B46324641462046B847BDE8F88352
:104C00002DE9F041044602F0A6FC06191EE000BFA3
:104C100000F00CFB052F00DD052700F071FF1148A7
:104C20000568FFF7E5FC2C0017D000BF02F056FC2A
:104C3000641EFBD1384602F087FC1DB100F060FF16
:104C40006D1EFBD1FFF73EFD02F048FC02F083FC35
:104C5000371A002FDCDCBDE8F081384602F074FC26
:104C6000F0E70000100400202DE9FC4706005FD0AB
:104C700000F046FF00F0E8FB3C4C81462068B0F9AC
:104C8000228000F011FC216807468A8CD01B8884A2
:104C900041E000BF47F6FF71304603F0EDF9824670
:104CA0000146304603F0BEF92168054691F82C0014
:104CB00000F00300012841D002283BD000204A8C9C
:104CC000101A4884ADF800006A1E1044ADF80400C4
:104CD000888CADF80200A9F101010844ADF8060086
:104CE0006A465146304602F01DFE2168BDF80200BA
:104CF00088845146304602F0DFFA064430780A28AC
:104D00001ED00D281CD0BDF800002168284448841E
:104D1000307818B1761C30780028BBD12068818C9F
:104D200039448184818D21F00301818502F0D6FB15
:104D3000BDE8FC8705EBD5704010C0E72846BEE70C
:104D4000206890F82C1001F0030101290BD00229F2
:104D500009D0018C418431780A29D9D1828C02EBA7
:104D600009018184D4E7A0F82280F4E7D40100206F
:104D700070B514460D46064600F0C2FE05480068B0
:104D8000458484843046FFF76FFFBDE8704002F031
:104D9000A5BB0000D401002047F6FF73AFF30080ED
:104DA0002DE9FC411F4690460D4606004FF00004D9
:104DB0001AD000F0A5FE65B128460CF0F5FC040001
:104DC00007D002462946684603F0B5F968460CF05C
:104DD000EBFC3B4642462946304602F0FBFD2046AE
:104DE0000CF0E2FC02F07AFBBDE8FC812DE9FF4FFC
:104DF00087B09046894607007DD000F081FED9F843
:104E00000040D9F8045021B228B2401A401C029048
:104E100000F01AFB064618F00C0F1ED038460A9A0E
:104E2000029902F065FB08F00C01042904D008295E
:104E300002D00C2911D104E0291400FB1610401CEB
:104E400009E02114C1EB254200FB1620401C00EBB9
:104E5000D07001EB600060F31F4448460CF0A4FCE6
:104E60005FEA000B09D00246494604A8CDE9044593
:104E700003F061F904A80CF097FCA6F1010A38468A
:104E80000A9A029903F0CCFA03900AEB244060F3EB
:104E90001F45CDE900453846039903F0C3F818F0E3
:104EA00003010ED001292CD002290ED1B9F904201A
:104EB000B9F90010521A101A00EBD07001EB600023
:104EC00001E0B9F80000ADF800006A4638460399E1
:104ED00002F028FD38460A9A029903F097FA07442F
:104EE00006EB244060F31F4438780028C7D15846A9
:104EF0000CF05AFC00E001E002F0F0FA0BB0BDE863
:104F0000F08FB9F80410081A401CDCE77CB5144691
:104F10000D46064600F0F4FD11480068C16C006DB6
:104F20000D4404443188681E0844ADF80400ADF80F
:104F300000507188601E0844ADF80600ADF80240CC
:104F400068460CF0EFFD06E0224629463046FEF7A3
:104F500031FD0CF06FFD0028F6D102F0BFFA7CBDE8
:104F6000D40100202DE9F04F87B09B46DDE9109871
:104F700092460C46054600F0C3FD16480168C86C11
:104F8000096D47190E1900EB0A0501EB0B04ADF88A
:104F90001070ADF81450ADF81260ADF8164004A8CA
:104FA0000CF0C0FD88B1DFF830B04FF0000ACDE959
:104FB0000098CDE902BA2B4622463946304611F018
:104FC0000FFC0CF037FD0028F1D102F087FA07B092
:104FD000BDE8F08FD4010020A99300082DE9F04F1F
:104FE00087B09B46DDE9109892460C46054600F0D6
:104FF00087FD16480168C86C096D47190E1900EB4A
:105000000A0501EB0B04ADF81070ADF81450ADF8C3
:105010001260ADF8164004A80CF084FD88B1DFF8EA
:1050200030B04FF0010ACDE90098CDE902BA23462D
:105030002A463146384611F0D3FB0CF0FBFC002821
:10504000F1D102F04BFA07B0BDE8F08FD401002097
:10505000359200082DE9FC4114460D46064600F045
:105060004FFD114F3968C86C096D054404440E4466
:10507000ADF80050ADF80440ADF80260ADF8066040
:1050800068460CF04FFD08E0386822463146406E15
:105090000368284698470CF0CDFC0028F4D102F0B4
:1050A0001DFABDE8FC810000D40100207CB50C464F
:1050B000064600F025FD0F4D2868C16C006D0E44BA
:1050C0000444ADF80460ADF80060ADF80640ADF8FA
:1050D000024068460CF026FD07E028682146406E35
:1050E0004268304690470CF0A5FC0028F5D102F04C
:1050F000F5F97CBDD40100202DE9FC411C46164683
:105100000D46074600F0FCFC1A480168087ECA6C90
:10511000096D17440D440C44401E391A1644ADF86D
:1051200000103118ADF80410291A2044ADF806001B
:10513000ADF8021068460CF0F5FC15E03246294641
:10514000384604F077F832462146384604F072F8C3
:10515000621E691C384604F027F9621E691C30463D
:1051600004F022F90CF066FC0028E7D102F0B6F951
:10517000BDE8FC81D401002070B58EB015460E4606
:10518000044600F0BDFC214606A803F0D0F8BDF8A7
:105190001A30642B0CD1002000900AAB01AA2146E2
:1051A00006A802F0A1FB2A46314601A8FFF7AEFE91
:1051B00002F094F90EB070BD7CB514460D4606465B
:1051C00000F09EFC0F480068C16C006D0E44054461
:1051D0000444ADF80060ADF80460ADF80250ADF8DD
:1051E000064068460CF09EFC06E022462946304602
:1051F00004F0DAF80CF01EFC0028F6D102F06EF98B
:105200007CBD0000D401002070B50C46054600F0BE
:105210000DF910B10121C0E9001400F071FC28461D
:105220000CF08AFBBDE8704002F058B910B50024BC
:1052300000E0012400F004F80028FAD1204610BD57
:10524000094810B50068002410B1804700B101245E
:105250000BF03CFB00B101240448006810B180470A
:1052600000B10124204610BDF8010020F401002007
:105270002DE9FC411C4615460E46074600F040FC51
:1052800010480068C16C006D0F4406440D4404448E
:10529000ADF80070ADF80450ADF80260ADF806400E
:1052A00068460CF03FFC07E023462A463146384664
:1052B00004F0D0F90CF0BEFB0028F5D102F00EF995
:1052C000BDE8FC81D4010020B0F90630B0F904201B
:1052D000B0F90210B0F90000FFF7CABF08B50B46DD
:1052E000002805D0009281888268C08800F001F80B
:1052F00008BD10B50828029C30D008DC04FB01F47E
:1053000001280AD0022813D0042804D11CE0102858
:1053100028D020282CD0002010BD04EBD30003F0AF
:105320000701105CC1F10701C84000F0010010BD89
:1053300004EB93000621105C01EA4301C1F1060170
:10534000C84000F0030010BD04EB5300D907105C07
:1053500002D000F00F0010BD000910BD04FB0130A9
:10536000105C10BD481004FB003032F8100010BD76
:10537000881004FB003052F8200010BD034951F89A
:105380002000C1688A6A082110470000EC01002053
:1053900010B500F0B5FB04F08DF904F06DFA044689
:1053A00002F09CF8204610BD10B5044600F0A8FBA2
:1053B000054800210068C0694268204690470446BD
:1053C00002F08CF8204610BDD401002070B50C46C8
:1053D000054600F095FB064821460068C069426812
:1053E00028469047044602F079F8204670BD000038
:1053F000D4010020002801D00BF0C6BA704710B5C8
:1054000000F07EFB04F05EF904F036FA044602F088
:1054100065F8204610BD00000021022802D2024992
:1054200051F8201008467047E00300201FB5002106
:105430000191029103912A21009169460CF054F8E0
:10544000039804B010BD000010B500F059FB0448EB
:105450000068C069447E02F041F8204610BD00009B
:10546000D401002070B514460D46064600F048FBF6
:1054700022462946304604F091F910B100202860F8
:105480002060BDE8704002F029B870B50C460546B2
:1054900000F036FB2146284602F00AFEBDE87040C7
:1054A00002F01CB802F057B810B5002400F028FB39
:1054B0000B48006890F82C1001F00C01042904D06E
:1054C000082906D00C2907D103E0C069047E641EB8
:1054D00002E0C069007E440802F000F8204610BDDA
:1054E000D4010020024951F820000069006870478B
:1054F000EC010020024951F8200000694068704723
:10550000EC01002070B50D46044600F0F9FA204683
:1055100012F060FF0446284612F064FF044301F0D5
:10552000DDFF204670BD00002DE9F04119480168FB
:1055300021F00101016018480125856017490160CB
:1055400000681749884200D0FEE702F0FDF8154ECA
:105550002E20307002F002F8134813F089FA16F08A
:1055600071FC074604F042F910B104F053F938B960
:1055700004F059F9044604F042F9214604F068FDAC
:105580000021084601F022F90BF07EFD75703846C7
:10559000BDE8F081002000E000300240C2A507F421
:1055A000CDB5E8B5C8010020C4B700201CB5CDE9D1
:1055B00000016946014800F003F81CBD11590008BC
:1055C0002DE9F8431E46174688468146012500F01E
:1055D00097FA48F2C440FEF720FF040009D03B468A
:1055E0004246494600960FF051F805462046FEF720
:1055F00033FF01F073FF2846BDE8F883F8B5054690
:10560000FEF7FEFF009000F5E04090F8206368464A
:10561000FFF760F8002410E00123224619462846CF
:105620000DF087FA30B908232246022128460DF0F2
:1056300080FA08B10120F8BD641CB442ECDB002004
:10564000F8BD00002DE9F04300F5E0448146D4F8B0
:105650009004A1B04FF00108002538B194F810046F
:10566000F0B300BFD4F8880430B32BE094F81104F1
:105670000028484603D013F095FC90B915E00EF0D1
:105680002BFD70B9D4F82814D4F88C0488420CDCB3
:105690006946484614F066FB18B99DF80000D92801
:1056A00003D0012021B0BDE8F08384F81084D4F841
:1056B0002804C4F89004D5E7D4F88404FEF7A0FFCA
:1056C000C4F888040746D4F87C04FEF799FF2090BC
:1056D000B8B10026D4F82004B0420FDD209800E0D5
:1056E00011E000EBC61180226846FBF773F83946DB
:1056F000684612F0A5FE761C4037EBE720A8FEF7BF
:10570000E9FF84F8105494F8120405281CD2DFE84D
:1057100000F02B270B0F030094F89004C0070BD167
:1057200048460DF03BFE0DE048460DF02FFD09E028
:1057300094F89004C00702D084F89C8404E04846A2
:105740000DF03EFC84F89C54D4F89004401EC4F83C
:105750009004D4F88C04401EC4F88C040020A1E707
:1057600048460DF071FBEDE7D4F89014D4F8280406
:10577000461AD4F89404FEF743FF0090D4F8881436
:1057800001EBC602D4F8141409E000BF52F8043B40
:1057900040F8043B52F83C3B40F8043B491E0029CA
:1057A000F4DC6846FEF796FFCCE7000070B500F524
:1057B000E044054694F82003042834D0284613F02A
:1057C00025FB28B194F8200384F83103002132E04E
:1057D00094F878232AB1002194F87B331BB101207F
:1057E00002E00121F8E7002094F87963B2421AD868
:1057F00009B1C6B903E094F83123012A13D118B1D5
:1058000094F87A239A420ED121B108B10E4905E0ED
:105810000E4903E008B10E4900E00E4928460EF09B
:10582000DDFD0028CAD0012070BD681800F5E040F9
:1058300080F83213491C94F831038842F5DC28467D
:105840000CF05AFF002070BD8D400108A53F0108F3
:10585000FD3E0108853C01082DE9F04100F5E044DA
:105860000546D4F8880420B147F288402844FEF762
:1058700031FFD4F8940408B1FEF7EEFDD4F8980493
:1058800008B1FEF7E9FDD4F87C0408B1FEF7E4FDA9
:10589000D4F8840408B1FEF7DFFD00260FE000BF56
:1058A00005EB061707F5E047D7F8C80308B1FEF780
:1058B000D3FDD7F8880308B1FEF7CEFD761C94F827
:1058C0002003B042ECDCD4F80C0408B1FEF7C4FDB0
:1058D000D4F88004002803D0BDE8F041FEF7BCBD39
:1058E000BDE8F081026811441378016003EB0320E6
:1058F00000EB0340704730B5026802EB810113787A
:1059000054789578016043EA042040EA054030BDB0
:1059100030B5054600206C68E41A002C07DD94427F
:1059200001DD104600E020462A681A440A6030BDB6
:10593000F8B50C46064600F03BF8054654B1304633
:10594000FEF75EFE0090818A2160C08A6060684632
:10595000FEF7C0FE2846F8BD38B5054600F028F829
:10596000040023D1284613F0BDF804001ED12846B8
:10597000FEF746FE47F211410090095C81B10CF040
:105980004DFE04000FD1009800F5004090F8A004EF
:1059900048B96846FEF79EFE28460EF09FFC38BDCB
:1059A00013F034FA04466846FEF794FE204638BDEC
:1059B0007FB50025FEF724FE01260090044680F8FE
:1059C00020601A4860600020E06102A9204612F0C1
:1059D00096FC20BB626803A920469047F8B99DF861
:1059E0000800FF281BD19DF80C00D82817D18DF88E
:1059F000040001A9009814F0B5F980B99DF80400DD
:105A0000C02808D0C12806D0C22809D1009800F5C6
:105A1000E04080F81164009812F016FB00B10125F7
:105A20006846FEF757FE04B0284670BDFF820108A5
:105A30002DE9F84300F500410446D1F8A824D1F837
:105A4000AC0404F5E0451044C1F8AC04002015E0B6
:105A500095F82123D1F8AC34022A08D1221802F596
:105A6000E04292F82523C2F1030293FBF2F304EB28
:105A7000800202F50042401CC2F8B03495F82023A1
:105A80008242E5DC002628E004EB061847F27C3170
:105A900008EB0107F868FEF7B3FD0090BA683968B3
:105AA0004A4379684A43002102F0EBFC6846FEF75E
:105AB00011FE47F2BC3108EB0107F868FEF7A0FDC4
:105AC0000090BA6839684A4379684A43002102F075
:105AD000D8FC6846FEF7FEFD761C95F82003B04220
